:020000040000fa
:080000000002040000000000f2
:020000040000fa
:040008002e030000c3
:020000040000fa
:04000c002e030000bf
:020000040000fa
:040010002e030000bb
:020000040000fa
:040014002e030000b7
:020000040000fa
:040018002e030000b3
:020000040000fa
:04001c002e030000af
:020000040000fa
:040020002e030000ab
:020000040000fa
:040024002e030000a7
:020000040000fa
:040028002e030000a3
:020000040000fa
:04002c002e0300009f
:020000040000fa
:040030002e0300009b
:020000040000fa
:04003400e22a0000bc
:020000040000fa
:040038002e03000093
:020000040000fa
:04003c002e0300008f
:020000040000fa
:040040002e0300008b
:020000040000fa
:04004400062f000083
:020000040000fa
:040048002e03000083
:020000040000fa
:04004c002e0300007f
:020000040000fa
:040050002e0300007b
:020000040000fa
:040054002e03000077
:020000040000fa
:040058002e03000073
:020000040000fa
:04005c002e0300006f
:020000040000fa
:040060002e0300006b
:020000040000fa
:040064002e03000067
:020000040000fa
:040068002e03000063
:020000040000fa
:04006c002e0300005f
:020000040000fa
:040070002e0300005b
:020000040000fa
:040074002e03000057
:020000040000fa
:040078002e03000053
:020000040000fa
:04007c002e0300004f
:020000040000fa
:040080002e0300004b
:020000040000fa
:040084002e03000047
:020000040000fa
:040088002e03000043
:020000040000fa
:04008c002e0300003f
:020000040000fa
:040090002e0300003b
:020000040000fa
:040094002e03000037
:020000040000fa
:040098002e03000033
:020000040000fa
:04009c002e0300002f
:020000040000fa
:0400a000ce25000069
:020000040000fa
:0400a400282600000a
:020000040000fa
:0400a8002e03000023
:020000040000fa
:0400ac002e0300001f
:020000040000fa
:0400b0002e0300001b
:020000040000fa
:0400b4002e03000017
:020000040000fa
:0400b8002e03000013
:020000040000fa
:0400bc002e0300000f
:020000040000fa
:0400c0002e0300000b
:020000040000fa
:0400c4002e03000007
:020000040000fa
:0400c8002e03000003
:020000040000fa
:0400cc002e030000ff
:020000040000fa
:0400d0002e030000fb
:020000040000fa
:0400d4002e030000f7
:020000040000fa
:0400d8002e030000f3
:020000040000fa
:0400dc002e030000ef
:020000040000fa
:0400e0002e030000eb
:020000040000fa
:0400e4002e030000e7
:020000040000fa
:0400e8002e030000e3
:020000040000fa
:0400ec002e030000df
:020000040000fa
:0400f0002e030000db
:020000040000fa
:0400f4002e030000d7
:020000040000fa
:0400f8002e030000d3
:020000040000fa
:0400fc002e030000cf
:020000040000fa
:040100002e030000ca
:020000040000fa
:040104002e030000c6
:020000040000fa
:040108002e030000c2
:020000040000fa
:04010c002e030000be
:020000040000fa
:040110002e030000ba
:020000040000fa
:040114002e030000b6
:020000040000fa
:040118002e030000b2
:020000040000fa
:04011c002e030000ae
:020000040000fa
:040120002e030000aa
:020000040000fa
:040124002e030000a6
:020000040000fa
:040128002e030000a2
:020000040000fa
:04012c002e0300009e
:020000040000fa
:040130002e0300009a
:020000040000fa
:040134002e03000096
:020000040000fa
:040138002e03000092
:020000040000fa
:04013c002e0300008e
:020000040000fa
:040140002e0300008a
:020000040000fa
:040144002e03000086
:020000040000fa
:040148002e03000082
:020000040000fa
:04014c002e0300007e
:020000040000fa
:040150002e0300007a
:020000040000fa
:040154002e03000076
:020000040000fa
:040158002e03000072
:020000040000fa
:04015c002e0300006e
:020000040000fa
:040160002e0300006a
:020000040000fa
:040164002e03000066
:020000040000fa
:040168002e03000062
:020000040000fa
:04016c002e0300005e
:020000040000fa
:040170002e0300005a
:020000040000fa
:040174002e03000056
:020000040000fa
:040178002e03000052
:020000040000fa
:04017c002e0300004e
:020000040000fa
:040180002e0300004a
:020000040000fa
:040184002e03000046
:020000040000fa
:040188002e03000042
:020000040000fa
:04018c002e0300003e
:020000040000fa
:040190002e0300003a
:020000040000fa
:040194002e03000036
:020000040000fa
:040198002e03000032
:020000040000fa
:04019c002e0300002e
:020000040000fa
:0401a0002e0300002a
:020000040000fa
:0401a4002e03000026
:020000040000fa
:0401a8002e03000022
:020000040000fa
:0401ac002e0300001e
:020000040000fa
:0401b0002e0300001a
:020000040000fa
:0401b4002e03000016
:020000040000fa
:0401b8002e03000012
:020000040000fa
:0401bc002e0300000e
:020000040000fa
:0401c0002e0300000a
:020000040000fa
:0401c4002e03000006
:020000040000fa
:0401c8002e03000002
:020000040000fa
:0401cc002e030000fe
:020000040000fa
:0401d0002e030000fa
:020000040000fa
:0401d4002e030000f6
:020000040000fa
:0401d8002e030000f2
:020000040000fa
:0401dc002e030000ee
:020000040000fa
:0401e0002e030000ea
:020000040000fa
:0401e4002e030000e6
:020000040000fa
:0401e8002e030000e2
:020000040000fa
:0401ec002e030000de
:020000040000fa
:0401f0002e030000da
:020000040000fa
:0401f4002e030000d6
:020000040000fa
:0401f8002e030000d2
:020000040000fa
:0401fc002e030000ce
:020000040000fa
:040200002e030000c9
:020000040000fa
:040204002e030000c5
:020000040000fa
:040208002e030000c1
:020000040000fa
:04020c002e030000bd
:020000040000fa
:040210002e030000b9
:020000040000fa
:040214002e030000b5
:020000040000fa
:040218002e030000b1
:020000040000fa
:04021c002e030000ad
:020000040000fa
:040220002e030000a9
:020000040000fa
:040224002e030000a5
:020000040000fa
:040228002e030000a1
:020000040000fa
:04022c002e0300009d
:020000040000fa
:040230002e03000099
:020000040000fa
:040234002e03000095
:020000040000fa
:040238002e03000091
:020000040000fa
:04023c002e0300008d
:020000040000fa
:040240002e03000089
:020000040000fa
:040244002e03000085
:020000040000fa
:040248002e03000081
:020000040000fa
:04024c002e0300007d
:020000040000fa
:040250002e03000079
:020000040000fa
:040254002e03000075
:020000040000fa
:040258002e03000071
:020000040000fa
:04025c002e0300006d
:020000040000fa
:040260002e03000069
:020000040000fa
:040264002e03000065
:020000040000fa
:100400006f5422000eff27000e018800000000003c
:10041000000020000000e000020032000001200087
:1004200020028800140007008e0007000000e00092
:1004300003003a00c0cb2200010020000200370078
:100440000000200001002000810f70000100320038
:100450000f000700000020000000e0000200320052
:100460000000020000000000862c020000000000d6
:100470000040da000000fe00a00e20000000e000b6
:1004800002003200002020009001880000000600d9
:10049000a1028800800478000000eb001f003700f4
:1004a000e284440054a0b4009905ba00e2844400f8
:1004b00054a0b4009906ba00e284440054a0b400e9
:1004c0000006eb00476fde00fd07b200ae018800ba
:1004d000636ce10003003a000ad801000000eb0061
:1004e0000e003700606ce10008003a00004deb00a0
:1004f0000a05e800020039003420ec000af0a000f0
:100500008b05e900f9ff3e00040037006168e10057
:10051000010032000086eb000b00070019c7ba008b
:100520001905ba000e04e00003003a000a00e000da
:10053000dbff3a0000000600fe07b200ae028800b2
:100540008a047800f5ff37000cd0a300e20f4d00bd
:100550001c00390089027800354dba000a05e80010
:10056000020039003420ec000af0a0008b05e900fd
:100570000f003200254dba000a05e80002003900dc
:100580003420ec000af0a0008b05e90008003200de
:100590000c00e0000600320015cdba000a05e800a4
:1005a000020039003420ec000af0a0008b05e900bd
:1005b0008984e80054a0b4000b00e000e2ff3a0098
:1005c000000006009902ba00055d78008b05e9007d
:1005d000f7ff3200c82ade00055d78008b05e900d0
:1005e000f3ff32000c00e000f1ff320019ddba0029
:1005f000eeff37008611040000000000c226040050
:10060000000000008e260400000000008a20040084
:100610000000000010200400000000007a2b0400fd
:1006200000000000182b0400000000007a290400dc
:100630000000000028290400000000006a2d0400ca
:1006400000000000f62b0400000000005e280400fb
:100650000000000066060400000000000040da0010
:100660000000fe000000050003f0a200889fbe000d
:100670008a9fbe008c1f7800020107000901330029
:100680006450e1004f0032006420e100520032006b
:1006900003826c0007003b000905d0000306d00070
:1006a000820f54000c065d00020039000200320087
:1006b00089017800030678008582550004003d001a
:1006c0000003fd008103fd008502ea008b854200e6
:1006d000840f720002003b0060001000e0801800f0
:1006e0006011b8000005eb007a28e1000a0039002b
:1006f00006007800c75ddd00f707b200878075004f
:100700002d003700828171000a01780061056000c8
:100710008180d1000080d3008502e900f9ff3b0011
:10072000060440008784480002003b006004140077
:10073000e0841c000988a300070032008a81710050
:1007400082817100610164008904d1000884d300b2
:100750008b05e800170037000978a30013003a0062
:100760000b00e000130034008b05e900080444008e
:1007700089844c000a4474000978a3000d003a00f3
:100780000b00e000070034008b05e900080444007a
:1007900089844c0001003a000b0020000978a30076
:1007a000f7ff32000001eb00020037008281710088
:1007b0000a017800780007000cf0a70001f0a00003
:1007c000c10037006420e10002003a00838f6c0012
:1007d000c10033000801be000200be00ba003700ad
:1007e000889fbe008a9fbe008c1f7800a50007006e
:1007f000ac00330003866c006450e1002e00320030
:100800006420e100330032006150e1002f0032002b
:100810006120e1003100320085855500eb07b00012
:1008200009002000080420000500370008044400e7
:1008300089844c000a0031000603430087834b0083
:100840000001530081815b00f8ff33000203be000a
:100850000800a0000804440089844c00f6ff390019
:10086000c639dd008301730001003200130020004f
:100870008904d1000884d3000998a3000500320040
:100880000800a7000300a0008904d1000884d30059
:100890008b05e8008904d1000884d3000001eb0037
:1008a0000281d2003c00070001f0a1000cf0a7007b
:1008b00001f0a000840037006420e10086003200cf
:1008c0000801be000200be00f7ff37006120e10012
:1008d000810032006000b800f3ff37000000200004
:1008e00001f82700f0ff3700839f68000100e00057
:1008f00002003d0060001000e08018000300e000ee
:1009000002003d0060011100e0811900a90007000c
:100910004f00e00002003b0060001000e080180083
:10092000000006000001be00410007000470a7009f
:1009300003f0a10003f8a30013003a006509b10019
:1009400010003200090035006928e100020035007e
:1009500001002800000005000000400081804800e0
:100960008502e900fcff3a0000000600f88f420013
:10097000050035008100d1000080d3008502e80029
:10098000fcff3a00000006008000eb0000000500bc
:100990006011b80097003700810020006180550089
:1009a0000b003d000b00200061fe2f000100e10064
:1009b0001d00340082817100610164008904d1004e
:1009c0000884d3000000e800faff3a00710020001c
:1009d0006100640003007000020060000900320042
:1009e00061044400e0844c000988a5000500320041
:1009f0008b05e8006808e10002003a008904d10094
:100a00000884d300f20f20000258e10005003d00e9
:100a1000c75ddd00f907b200898075000800780025
:100a2000000006000bf827008b007800000005008e
:100a3000c70ade00f107b200f50fb200080032006d
:100a4000e1cf4200020032000170a0002400050046
:100a5000810f700001003200040805004400050009
:100a6000810f700002003a00140005008502e900c1
:100a70000000400081c04800fcff3b000170a00066
:100a8000240005000004be00e9ff07000003be00cb
:100a90000405be000200be00e5ff0700844f75009c
:100aa000000006000200be006450e10005003600b0
:100ab0006420e100020036000968a30001003a004a
:100ac0000800be000160a0004f0678004f05be0080
:100ad0004f04be0000000600f0ff2f00f1ff2700ca
:100ae000f9ff3700889fbe008a9fbe008c1f7800e8
:100af000e4ff0700ebff330003866c006450e10065
:100b0000240032006420e100270032006150e1003f
:100b1000220032006120e100210032008b8542007a
:100b2000eb07b1000134b800003ab80008044200f5
:100b300089844a00013ab8000030b800888040003b
:100b400009014a0004003300000040008180480091
:100b5000020149008b05e900c909dd00830170002d
:100b60000100320013002000c814de004814dd002c
:100b70004709de001200b200c808de0008847000d9
:100b800085ff070001f0a1000cf0a70001f0a00014
:100b9000cdff37006120e100cfff32000801be0029
:100ba0000200be00f7ff37006150e100fcff3a0091
:100bb000c9ff37006022b800060220000000d00004
:100bc0008180d2000482d2008582d2000000a00081
:100bd0000202520083825a000300310002024200e6
:100be00083824a000000a1000603e900f3ff3a00f7
:100bf00000000600889fbe008a9fbe000082700031
:100c00000402710004827100260032000004be005c
:100c10000200be006011b8006b09200095022000a0
:100c20000182cf000a0039000541b1000082cf00e7
:100c3000070039000541b1000982cf0004003900e6
:100c40000541b1000882cf00010039000541b10023
:100c500005425200120032000a003b0082817100fe
:100c6000610164008100d1000080d3008984d30039
:100c70000884d3008b05e8000442e800f7ff3a003f
:100c8000070037000804440089844c000000480035
:100c9000818048008b05e9000442e900f9ff3a0031
:100ca0003dff07004f05be004f04be0000000600d8
:100cb0008001780002003700b15978000201e90094
:100cc0000200e000fcff3a0000000600881f7800e8
:100cd0000204780008017800f5ff070008004000d2
:100ce0004f047800000006000000fa00881f78001a
:100cf00000047800ea8157003fb997008800780027
:100d000060662000070007000000e00002003500d8
:100d100000044400004ceb004f0478000080fa000f
:100d2000000006006200fa00889fbe008a1f78005b
:100d300000057800810478000204780083007800c0
:100d400080f92f000f004000b50307009a979f001d
:100d5000a9979f000000eb00b09f9f001885fb0043
:100d60008a04fb000a05ea004f55de00500220000d
:100d7000808f54000d003200e10f55000b003a0047
:100d80000a017800880078002f9097009f919700c3
:100d900003000100a0979f000000e0008e003200d9
:100da0003f9897000000e800b09f9f000a044400ad
:100db00050022000808f5400040032000900e0003f
:100dc000e6ff3a003f989700840037000000eb00f0
:100dd000909f9f00809f9f00f0979f00e0979f004b
:100de000d0979f00c0979f00070037004151220015
:100df000010050000000400081502200808040002f
:100e00005f98970011007000d09f9f0088047800c1
:100e100009047800384578008a00fb004051220020
:100e2000800107000000e000f0ff3a00a1c2b3001b
:100e3000814f55000e003a00cf8897000180e900ed
:100e4000c08f9f0010007800c09f9f000000e0004e
:100e500005003d000000ea00c09f9f005f989700da
:100e60000020a000d09f9f000904e8000f00370079
:100e7000c09f9f000000eb0005003700f2ff270035
:100e8000820f500002003200ea00b90000804000ea
:100e90000904780088047800b900fb000103b10060
:100ea000e98f5000f5ff3600c09f9f00e0c2b300fd
:100eb000984f1000020032000080eb00190037004c
:100ec000a0c2b300d84f100007003a00cf889700a7
:100ed0000180e900c08f9f0010007800a09f9f0054
:100ee0000804e800100037000000eb00a09f9f00fe
:100ef0008800780005003700f3ff2700830f5000bb
:100f000002003200ea00b90000004100010478004c
:100f1000880078003101fb000203b100e90f5100a5
:100f2000f5ff3600a09f9f00984478008900fb00e1
:100f3000005022003b0107000000e00002003200e8
:100f40000804e800010037008044eb00c97f9f00df
:100f500080c6b30080cf540004003a0098cf14003c
:100f60000a003a006640500006003700c0c6b300d1
:100f700080cf540005003a0098cf140003003a00d7
:100f800065404000c07f9f000804e8001801fb0096
:100f9000e3fb2f008f81410081f92f008f804000fb
:100fa000a0f92f000f004000100007000000e00033
:100fb00009003a00e1fb2f008f804000a0f92f00cc
:100fc0000f0040005a0207000000e0000200350058
:100fd0000804e80061ff37000080eb004f0578004f
:100fe0004f04be000080fa0000000600881f780051
:100ff000e4c6b300844f5100bc00320010003c0036
:101000006b425200844f51001800320005003c0032
:1010100054c2b300844f5100f400320084c5b300c1
:101020000f00370044c6b300844f51001500320052
:1010300065424200844f5100ef003a001100370032
:1010400004c7b300844f5100db0032005700350065
:1010500065424200844f5100540032006342420016
:10106000844f5100e4003a00500037001181e9003c
:1010700082087800f0009000818141009249780058
:10108000e300370020629000c5c6b300854f5200d0
:1010900007003a00910278006482520084087800c8
:1010a0001402be004fabde0086037800110037004b
:1010b00015c7b300854f520003003200a5c6b30028
:1010c000854f520006003a00910278006882520073
:1010d000840878005403be004402be0005003700b7
:1010e0001182e9008408780014027800cfa2de00a3
:1010f000612bb9000498be000690be00a06090006d
:1011000088c6b30088cf50000d00320028c6b30057
:1011100088cf500004003a000402fb00cfa2de009a
:10112000612bb9000800370048c7b30088cf5000d2
:10113000030032006644440088cf500004003a00a7
:10114000cfa2de00612bb9000498be000690be005d
:101150003002be002003be00f0009000e00f5200fd
:10116000e08f5a00e00f5b00e08f5b0003003d0062
:1011700001824100d5c2b3000a003700001290007e
:101180000418a3000300320001824100b5c2b3007d
:10119000040037000408a3004f0032000182410020
:1011a00005c2b300054a780049003700206290006c
:1011b000c5c6b300854f520006003a009102780080
:1011c00064825200840878001402be006033b800c4
:1011d0001100370015c7b300854f520003003200dd
:1011e000a5c6b300854f520006003a009102780070
:1011f00068825200840878005403be004402be0096
:10120000050037001182e900840878001402780094
:101210008002eb006033b8000498be000690be0068
:10122000a060900088c6b30088cf50000d00320047
:1012300028c6b30088cf500004003a000482fb00a7
:101240008002eb006033b8000800370048c7b300e5
:1012500088cf5000030032006644440088cf50001d
:1012600004003a008002eb006033b8000498be002e
:101270000690be00801090000138a30016003200d6
:101280003002be002003be00e00f5200e08f5a0083
:10129000e00f5b00e08f5b000f00320081c7b300fe
:1012a000814f51000300320081c5b300814f5100ce
:1012b00009003a00f00090000182410005c3b3002c
:1012c000054a78008100e80001824100024a780066
:1012d0008100e80071009800f000900081814100d9
:1012e00063009800824078003e003700a0619000c3
:1012f000c4c6b3001181e90084cf5100220032003e
:101300000a003c006442520084cf510025003200a4
:1013100004c2e80084cf510013003200684252003a
:1013200084cf51001e003a000a00370044c7b300c2
:1013300084cf51001b0032006642420084cf51002e
:10134000180032006942520084cf510014003a0064
:10135000050037008208780092007800405890001d
:10136000804878002c0037008208780092007800ce
:10137000600a9000cfa2de00612bb9008498be0005
:101380008690be0024003700820878009200780022
:1013900060099000cf91de008288be001e003700f9
:1013a0001181e900820878009200780060089000be
:1013b00080087800180037001181e9008208780061
:1013c00012027800cfa2de00612bb9000498be00a3
:1013d0000690be00f00090008181410063009800fb
:1013e00081c7b3001b0007000b003700f00090001e
:1013f0008181410005003700f000900081814100ab
:101400000204e00001003a0052c2b30082497800b1
:101410008100e800710098000000eb004f047800a4
:1014200000000600020037000304e000060032005e
:101430000001780002007800b041780081cf5100af
:10144000f9ff3a00010037000001eb0002007800cc
:1014500000000600fc874700889fbe008a9fbe00f0
:101460008c9fbe008e1f78000006780080c5b300f8
:1014700080cf50000a0032007740400080cf5000fb
:101480000a0032006940400080cf50000b0032005b
:10149000f04e220080bf9f00ae0020000a003700ff
:1014a000e24d220082bf9f0006003700f34e22006b
:1014b00083bf9f008e00200003003700f44e2200ff
:1014c00084bf9f000e0120003c02be002c03be0022
:1014d0000605be000404be0040c6b30080cf500025
:1014e000030032006540400080cf50000b003a00fe
:1014f000e00f5200e08f5a00e00f5b00e08f5b00ce
:1015000006003d006000b8006011b80004045000ff
:10151000858458000605590087855900e80f570053
:101520000400320040002000f00f57003a003a005b
:101530000100370030002000e00f5400e08f5c0015
:10154000e00f5d00e08f5d0004003a00dc089000d1
:101550008d0120000100e000070032008e00e9004c
:10156000888060008fba97008180420091407800a7
:10157000f1ef9f007d012000800078008100e900ec
:10158000050033008b05d1000a85d3008984d30080
:101590000884d300f9ff3700089ebe000a96be00fb
:1015a000130037008d06e9008e00e900848060009a
:1015b0000fb99700810041001141780083fd2f0091
:1015c0008d81410082f77900800178008301e90074
:1015d000050033008783d1000683d3008582d300c2
:1015e0000482d300f9ff3700049ebe000696be00b9
:1015f0003c02be002c03be00e00f5200e08f5a00f8
:10160000e00f5b00e08f5b00910034000d00e00014
:10161000e4ff3c008e0037002c60900081c6b300d0
:10162000814f50000b00320006003c000004e00037
:1016300008003200e6c05000814f500052003a00ce
:1016400004003700c1c6b300814f50004e003a007d
:10165000230037000800e00004003a005c08900016
:101660008d0120000000e000070032001100090099
:101670000e84d8000fba9700010042001040780095
:10168000f0ef9f007d012000110009000e84d800ba
:101690000b003700110009000e04d8008d06e90088
:1016a0008e81b900020454008fb89700088440006e
:1016b0009841780082fd2f000d0141008377790069
:1016c000000478000800e000020032000d00e00095
:1016d000f0ff3c00cfc4de00614db90027003700a9
:1016e000e00f5400e08f5c0004003a005c089000ba
:1016f0008d0120000000e000080032006171b90097
:101700000800be00480107000fba970080004200a1
:1017100091407800f1ef9f007d0120006171b900d8
:101720000800be0023fd07000c0037006171b900fe
:101730000800be006cfc07008d06e90080f1b900ce
:10174000020454008fba9700088442009841780040
:1017500082fd2f000d014100837779000004be0057
:10176000e00f5000e08f5800020032000d00e00052
:10177000eeff3c004fcdde008a057800089ebe00db
:101780000a96be0032003700e00f5400e08f5c0084
:10179000e00f5d00e08f5d0004003a005c089000ff
:1017a0008d0120000000e0000a0032006172b900e3
:1017b000612bb9000800be000a01be00bd01070090
:1017c0000fba97008000420091407800f1ef9f002f
:1017d0007d0120006172b900612bb9000800be00d4
:1017e0000a01be00ac0107000e0037006172b900ab
:1017f000612bb9000800be000a01be00b10107005c
:101800008d06e90080f2b900040454008fba9700f5
:10181000088442009842780084fd2f000d024200a7
:1018200085777a00009ebe000296be003c04be0092
:101830002c05be00e00f5400e08f5c00e00f5d005f
:10184000e08f5d00020034000d00e000e7ff3c0087
:10185000e80f570010003a000c1090000038a30069
:101860000d003200f78f560006003e0080fd2f006d
:101870000d004000ef40780000c3b30080cf50005f
:101880000500320002c3b30071fd2f008d804000bf
:101890008d06e90082f7780078811600120e980014
:1018a0006c00900083fd2f008f8141008d804100ee
:1018b000fffc07001c089000dc089000810f50001e
:1018c00006003d0000805000000e98000c109000b3
:1018d0000040a100001698000f0037000100e00052
:1018e0000d003d008c109000f4806000f08f5000df
:1018f00009003a007c099000fc0090008100510032
:101900000c09900082805000008050004240a900e5
:1019100001003400000e98004f0778004f06be000b
:101920004f05be004f04be00cf01b100000006000d
:101930000400fa00889fbe008a9fbe008c1f7800ba
:101940000004780001067800f80d900078009000ff
:101950008085550008089000808555001808900083
:101960008085550028089000808555003808900033
:1019700080855500480890008085550000022200af
:1019800090bf9f0000032300a0bf9f00081090009d
:101990000028a30015003a000b00e00013003400fb
:1019a0000b0578008a047800e20f5500010036002c
:1019b00029002000c801900009017800ee8057003e
:1019c0005800900003000100500498000000e0005f
:1019d0008c0032006808900009004000600c9800fc
:1019e000090555004240a900eeff3c007801900037
:1019f0000200e0000c003400c80190008c00780068
:101a00005800900003000100500498008080eb0013
:101a10000000e0007c003200e808900078009000b0
:101a200000804000600c9800880c90000900e000e5
:101a30001100340009057800e28f540001003600df
:101a40002a002000c80190000a017800ec805700ad
:101a50005800900003000100500498000000e000ce
:101a600068003200680890000a004000600c98008e
:101a70008a845400edff3700180990000200e0004e
:101a80000c003400c8019000e8009000580090005d
:101a900003000100500498008080eb000000e0008b
:101aa00059003200e80890001808900000804000bb
:101ab000600c9800a80c90000900e00011003400b0
:101ac00009057800e28f5400010036002a0020004a
:101ad000c80190000a017800ec805700580090007f
:101ae00003000100500498000000e00045003200af
:101af000680890000a004000600c98008a84540036
:101b0000edff3700380990000200e0000e003400bd
:101b1000e80090001808900080804000c801900004
:101b20005800900003000100500498008080eb00f2
:101b30000000e00034003200e8089000380890000f
:101b400000804000600c9800c80c90000900e00084
:101b50001100340009057800e28f540001003600be
:101b60002a002000c80190000a017800ec8057008c
:101b70005800900003000100500498000000e000ad
:101b800020003200680890000a004000600c9800b5
:101b90008a845400edff3700081090008000eb00ad
:101ba0000028a300180032000b00e00016003400eb
:101bb0008b04780009057800e28f5400010036009c
:101bc0002a002000c80190000a017800ee8057002a
:101bd0005800900003000100500498000000e0004d
:101be00008003200680890000a004000600c98006d
:101bf0008a8454004240a900eeff3c008000eb00c4
:101c0000010037008080eb00010078004f0678006b
:101c10004f05be004f04be000080fa000000060021
:101c20000108780000000600e2fb07000400be0087
:101c300000000600889fbe008a9fbe00300442005c
:101c4000b0844a0030054b0090854b006000b10025
:101c50000898be000a90be000440e10005c8e100fb
:101c600006d0e10007d8e100020031006800400022
:101c70001008e8004f05be004f04be00000006003b
:101c8000889fbe008a9fbe003004be002005be00b3
:101c90000418540005985c0006185d0007985d0064
:101ca000110020000440e10005c8e10006d0e10079
:101cb00007d8e100010039008000eb001088100017
:101cc0004f05be004f04be00000006001200fa00df
:101cd000889fbe008a9fbe008c9fbe00e0b79f0019
:101ce000f1b79f0082bf9f0093bf9f000605be0013
:101cf0000404be000000eb00d0b79f00c0b79f00f7
:101d0000b0b79f00a0b79f0090b79f000006eb0000
:101d10005fb19700cfb09700820141003fb09700bc
:101d20000200e00004003d00370007007e805700fd
:101d3000c0ff070003003700330007007e80570014
:101d4000cfff0700dfb697000d00e0000c00350064
:101d50006fb29700ffb297000fbb97009fbb970031
:101d600010002000010020006011b8000002720085
:101d70008182720002037300838373001b000700db
:101d80000c06e80001042000810f5600e0ff3a0035
:101d90000d00e00004003d000802be000a03be0082
:101da0007e805700a3ff07005fa897000000e000b7
:101db00005003a001fb29700afb297003fb39700fb
:101dc000cfb39700090007006fb09700ffb09700ee
:101dd0000fb997009fb997004f06be004f05be0090
:101de0004f04be000080fa0000000600010007005a
:101df00000000600a4b79f00b5b79f00c6b79f00bc
:101e0000d7b79f00000006004f09de0082817100f5
:101e1000b3b79f004f01de008180400082807000d8
:101e2000a1b79f008fb097004f09de00000040006f
:101e30000200700090b79f007fa897004f01de005e
:101e4000818040008280700081b79f000d000700f4
:101e50004f3ade000000400004007000f0af9f0029
:101e6000080007000402420085824a0006034b0076
:101e700087834b00dfff07000802be000a03be0095
:101e8000000006002fb29700bfb297004fb3970033
:101e9000dfb3970000000600881f780018002000bc
:101ea000881f780089ff07008f87e9004f047800ba
:101eb00000000600801feb0084ff07008f87e90009
:101ec00000000600889fbe008a9fbe00e00f500001
:101ed000e08f5800e00f5900e08f59000c003d00e2
:101ee0006044b8006055b8000000540081805c0078
:101ef00002015d0083815d001800200015000700cd
:101f000008003d00180007000004eb000500370042
:101f10000004eb000f00070002003d001200070064
:101f200018002000dcff07000800e0000600320077
:101f30006022b8006033b8000000520081805a006f
:101f400002015b0083815b004f05be004f04be00b1
:101f500000000600e00f5200e08f5a00e00f5b0027
:101f6000e08f5b00000006006044b8006055b800d8
:101f70000402540085825c0006035d0087835d00d7
:101f800000000600889fbe008a9fbe008c1f78005c
:101f9000e00f5000e08f5800e00f5900e08f59002b
:101fa0000d003d006044b8006055b80000005400ca
:101fb00081805c0002015d0083815d001c002000c7
:101fc0000820e10009a8e1000ab0e1000bb8e10037
:101fd0000d003d00080037000006eb00e00f520046
:101fe000e08f5a00e00f5b00e08f5b0006003d00d1
:101ff0006044b8006055b8000402540085825c005b
:1020000006035d0087835d00aaff07000c00e00067
:10201000060032006022b8006033b80000005200b1
:1020200081805a0002015b0083815b004f067800cb
:0c2030004f05be004f04be00000006007b
:020000040000fa
:10203c001111000022220000333300004444000040
:10204c005555000066660000777700008888000010
:10205c0099990000aaaa0000bbbb0000cccc0000e0
:10206c00dddd0000eeee0000cecd0000acab0000dc
:10207c000202000003030000040400000505000038
:10208c000606000007070000080800000a09000007
:10209c001010000010110000121200004641000048
:1020ac00494c000020230000310000004641000094
:1020bc00494c000020230000320000004641000083
:1020cc00494c000020230000330000004641000072
:1020dc00494c00002023000034000000256400005f
:1020ec006e730000206d000061780000206a000013
:1020fc006974000074650000720000004368000001
:10210c00656300006b000000514300006f6e00001f
:10211c00734200003100000051500000726f00004b
:10212c006442000032000000514300006f6e00005a
:10213c00734200003300000051500000726f000029
:10214c00644200003400000051500000726f000027
:10215c006442000035000000514300006f6e000027
:10216c00734200003600000077770000772e0000e5
:10217c004672000065650000525400004f53000089
:10218c002e6f000072670000004c000043440000fa
:10219c000000000096000000c8000000fa000000db
:1021ac002c0100005e01000090010000c201000043
:1021bc00f40100004254000065730000743100000b
:1021cc0000420000546500007374000032000000ef
:1021dc00434f00004d54000078000000434f0000b6
:1021ec004d52000078000000496e0000744d000054
:1021fc006174000068000000494400004c45000078
:04220c0000000000ce
:020000040000fa
:1022100080007800d10190000000eb00e24822002d
:10222000828f510008003a00a10890004248220025
:10223000828f50000400320001f0a7008100ea0004
:102240000100e9004f00de00000006006080800011
:102250001000e00002003a000eb0ef00000006009f
:1022600060808000300090003000900010009000ee
:102270007080880000000600889fbe008a1f7800da
:102280000004780001057800498080000090ec008f
:10229000b90e0700e10f440007003a000a00e00011
:1022a00005003200018080008180e800e0482200c3
:1022b000940e0700120037000904440000808000db
:1022c00018009800888f54000500360001808000b7
:1022d000508080008180e800940e070008003700dd
:1022e00001808000608080008180e8008f0e070000
:1022f00070808000880f50000100360078808800d0
:102300004f0578004f04be0000000600881f7800cb
:10231000c845220010002000980f1000030036006e
:10232000ec2d02000000000000000000910d0700ed
:10233000f8ff3700e4874700889fbe008a9fbe00f1
:102340008c9fbe008e1f780080bf9f0081057800a3
:102350008204780003077800840678000506780078
:1023600060022000f10e0700000478000080eb00fe
:102370000800e0006900320009804400eb0e07000d
:10238000000578004a0c98000a00e00069003a0055
:1023900008007800000f07000080eb005f003700a6
:1023a000db6878001b04e000030032000000e80056
:1023b000e40f5000faff3a000040eb00505c980038
:1023c0008d047800e38f54000100360039002000ae
:1023d000390c98008885e8000b007800460e07004d
:1023e0006c004400440e070048049800e484140084
:1023f00069049800180c98006000b8000014980058
:10240000111498000040eb00406498000e01780021
:102410008fb897000a0078000e0c0700000c7800b7
:102420000c00e00001003200080e7800560c070096
:102430001430ec000010e20019003a000880880017
:10244000a0808000e10f50001d003a008004eb00e6
:10245000ca452200ea48b9000a0040001e0e0700e3
:102460008904e800e48f5400faff3a008049220012
:10247000190e0700204a2200170e070040482200cc
:10248000150e0700e0482200130e070080492200c5
:1024900060808800204a22005080880008003700b1
:1024a0001610e20006003a0000808000b00890009c
:1024b00038089000808f500001003e00088088009e
:1024c0001a30ec00380890000410e30001003100dd
:1024d00020808800ea00b900c145220001004000c8
:1024e0008b007800070e07002f0c0700100020005b
:1024f0001610e200090032000080800030099000d0
:10250000b808900010002000810f51000300310036
:10251000ec2d020000000000000000004f077800d2
:102520004f06be004f05be004f04be004f00b10075
:10253000000006008904d0008984e9008904450070
:10254000790c98001b407800205c98001b04e00088
:1025500099ff3200fa0044001000200090ff37007d
:10256000889fbe008a1f78000004be00e38f5400dd
:102570000100360039002000030c07000800e000cd
:1025800001003a000880800038089000890f500050
:102590002f0032000b0031000005eb0001808000ad
:1025a000888f50000d003200018080001a0020004a
:1025b000b1089000898f5000080036000005eb003c
:1025c0000600370001808000088568000af0a70037
:1025d0000a05ea000a05e9004f55de00390c9800ab
:1025e000e80090000100e00002003500e4841400df
:1025f00069049800ea00b900c145220001004000ca
:10260000d8009000808f50000c003a008884e800c9
:1026100009007800d80d0700380890000410e30086
:102620000100310020808800ea00b900c145220085
:102630000100400089007800b20d07000a00e000a8
:1026400003003200ec2d020000000000000000003a
:10265000d50b07004f0578004f04be0000000600b0
:10266000889fbe00000478000800e0001d003200d2
:1026700000808000880f50001a003200c20b070053
:1026800008007800e2fe07000000e00014003200bd
:102690008884e80009007800b70d0700380890002a
:1026a0000410e3000100310020808800ea00b90036
:1026b000c14522000100400089007800910d07000b
:1026c00000808000b808900030089000808f500093
:1026d00003003900ec2d02000000000000000000a3
:1026e000b10b07004f04be0000000600889fbe002b
:1026f0008a1f78000004780008007800c4fe0700f4
:102700008004eb000000e0001a0032000210e2003a
:1027100014003a000080800019002000b8089000e2
:1027200030089000808f5000010031008004eb00e1
:102730000885e8000a0078008f0d0700380890002f
:102740000410e3000100310020808800ea00b90095
:10275000c1452200010040008a007800690d070091
:1027600004003700ec00440040482200650d0700db
:102770008004eb00090078004f0578004f04be008c
:1027800000000600850121000002eb008001eb0043
:10279000920620002110290060182100e5fe0700a4
:1027a000e10f50000b003a00f0f12f004200b6009c
:1027b0000050a0001002880000000000000000008f
:1027c0000eb0ef0010002000b08088000830ef004d
:1027d0004d0b070000000600f0f12f004200b6008c
:1027e0000050a0001002880000000000000000005f
:1027f0001630ef00350b37000230ec000000060009
:10280000881f7800600b070048808000660b070077
:10281000080078004f047800000006004080800027
:1028200000000600a0808000000006000000e0001c
:1028300001003a00008080007a004000000006009d
:10284000889fbe008a9fbe008c9fbe000210e200df
:102850003e003a004b8080008b05e8004b808800ea
:1028600006003a00608080000a10f8000c10f900a1
:10287000508088001030ec0074fe07000005eb006b
:10288000708080008b0f500027003e00cc45220056
:102890001d002000010037000d05780060808000d9
:1028a0001000e00002003a000eb0ef001e003700fa
:1028b000608080003000900030049000180090008c
:1028c000808f5500020031007080880016003700ac
:1028d0008884e80009007800270d07002808900088
:1028e0000000e000020032006c004400220d0700ee
:1028f000380890000410e3000100310020808800b7
:10290000ea00b9000c00400089007800fd0c0700c7
:1029100000808000b808900030089000808f500040
:10292000ddff3100ddff37000080800030089000bf
:10293000ea00b900c14522000080400011002000db
:10294000908f100004003e00040037001230ec00ad
:102950000005eb00010037001a0020000610e2001d
:10296000010032001a0020000a0078004f06be0065
:102970004f05be004f04be0000000600889fbe0049
:102980008a9fbe00000b07000230ed000004eb0040
:102990000210e20032003a001410e200300032006f
:1029a0004a482200cb4522001600370050248100ff
:1029b000300490006c004400ef0c07008884e800ad
:1029c00009007800ec0c0700380890000410e300c0
:1029d0000100310020808800ea00b9000b004000af
:1029e00089007800c70c070000808000b8089000bc
:1029f00030089000808f5000020039001000200045
:102a0000308088001a00e000e8ff3a000800e0008b
:102a1000010032000dfe0700988080000800e000f1
:102a2000080032001900200085ff07000000e000c8
:102a300001003200398088000804e900faff3a00fa
:102a40001230ef000004eb000610e2000400320038
:102a5000ec2d020000000000000000001800200023
:102a6000d10a0700080078004f05be004f04be00e1
:102a700000000600881f7800000478000800e000cd
:102a8000070032005cff07008000eb0008007800c0
:102a9000f9fd0700b9ff07000000e00003003a005d
:102aa000ec2d020000000000000000004f04780040
:102ab00000000600889fbe000004be004eff070015
:102ac000408080009800780081844400810f50008d
:102ad00006003100898f500015003600090c78007f
:102ae000890f50000900310005003700898f500020
:102af0000d003e00890f50000b0039000c0037001c
:102b0000008054008000eb00dbfd07009bff070006
:102b10000000e00008003a00ec2d02000000000078
:102b20000000000004003700090c7800f4ff3700b3
:102b3000090c7800f5ff37004f04be0000000600c6
:102b40000210e200030032001000200030808800f4
:102b5000000006000630ef0020808000ea01b90086
:102b6000c1452200828040001100e00009003a00c7
:102b70000002e900ea22b900c245220082004200b8
:102b80000000e90011017800ea8050000200e00036
:102b9000fbff3200ea01b900c145220082814000fa
:102ba000930190009301900002824000130298006c
:102bb0006401410081004100818f510005003a000d
:102bc000ea01b900e1452200810041009301900033
:102bd00083087800ea01b900e14522008100410044
:102be00091007800b100900001808800208088006a
:102bf00000000600889fbe0000047800620a0700fb
:102c00000800e00001003a00088080008884e800a5
:102c100009007800580c0700280890000000e00028
:102c2000020032006c004400530c07008900780059
:102c3000e0482200330c07005b0a07001610e20090
:102c400003003200500a070080fd0700560a070003
:102c500000808000880f50000c003a001610e2003f
:102c600004003200ec2d0200000000000000000013
:102c700006003700702481001410e30002003a00bf
:102c80000030ef0001003700adff07004f04be0029
:102c900000000600881f7800010478000180800091
:102ca000ec804000210c0700110020000800780093
:102cb00071fd07004f04780000000600881f7800af
:102cc00002047800028080000300280081807100e7
:102cd0006101980001808000ec804000090c070031
:102ce000110020000800780063fd07004f04780001
:102cf00000000600889fbe0030009000b0049000e5
:102d00006c844400080078001b0c07000210e200ed
:102d10000d003a000984e80008007800160c07004e
:102d2000390890000410e300010031002080880081
:102d3000ea00b900c1452200010040008800780087
:102d4000f00b07000300370088007800404822009d
:102d5000ec0b07000080800039099000b00890005b
:102d60000000eb00810f510002003600100020002f
:102d7000308088004f04be0000000600889fbe001f
:102d8000020028000288700030049000fa0b07004f
:102d90008884e80009007800f70b070038089000e5
:102da0000410e3000100310020808800ea00b9002f
:102db000c14522000100400089007800d10b0700c6
:102dc0000080800038099000b00890000000eb00ff
:102dd000810f510002003600100020003080880072
:102de0004f04be00000006008180800001087800ca
:102df000418080001100980000000600889fbe00fe
:102e00008a1f78008004780001057800de09070039
:102e1000418080001a0078000004eb00e10f4000c0
:102e2000120032001901780083808000828f5100e7
:102e3000040032001901900018002000828f500019
:102e40000a00310019019000828150001800200012
:102e5000830f50000500360081005100008d4000b6
:102e600009007800e0ff07000004eb00ce0907002e
:102e7000080078004f0578004f04be0000000600ef
:102e800010002000308088000000060000808000d4
:102e90006000900001808000028080003209900074
:102ea00064011100e200980000000600889fbe0047
:102eb0008a1f78000005780001047800b209070035
:102ec000008080009010900000109000e00f5000f3
:102ed000e08f58000b003a000080800011c0b30062
:102ee000416098000800e000060032001100200058
:102ef00008007800e0fc0700ec2d02000000000054
:102f000000000000a80907009f090700008080005a
:102f10000014900090149000e00f5400e08f5c00cb
:102f20000c0032000a00e000050032000080800042
:102f30006011b800021098001310980005003700c7
:102f40000080800061015400e0815c000210980064
:102f500013109800008080008040eb0041609800d2
:102f6000910907000800be004f0578004f04be001d
:102f700000000600889fbe008a9fbe008c9fbe0096
:102f80000004be000205be000406be007e09070064
:102f90000080800040609000e24f50001a00320034
:102fa0000480800004109000941090000884ea00cf
:102fb0008984ea0088026000098160008001eb00da
:102fc000c010dd00000020006129b8000200700080
:102fd0008380700000129800111298000080800019
:102fe00011c0b300416098000d00e00006003200ff
:102ff000110020000d0078009ffc0700ec2d02005e
:103000000000000000000000670907005e090700db
:103010000c00e000040032000080800000119000ed
:1030200090119000028ebe000080800040609000f1
:103030000004eb00e14f50001000320004808000db
:1030400004109000941090000a85ea008b85ea0035
:103050008a0260000b8160008001eb00c010dd007f
:10306000000020006129b800020070008380700019
:1030700000129800111298001800200000808000b3
:103080008040eb0041609800470907000800780085
:103090004f06be004f05be004f04be0000000600f4
:1030a000889fbe008a9fbe008c1f78000205be006c
:1030b00001047800040678008004780032090700d3
:1030c0000c00e000030032000910900099109000fd
:1030d000008ebe004960900021c0b300c16498001a
:1030e000e20f54001000320003003e00e10f5400d4
:1030f0001c003a0005003700e30f540011003200b5
:10310000e40f540017003a00110037000911900035
:103110009911900002057500838575008a14980046
:103120009b1498000f00370009119000991190002e
:1031300061014100e08149008214980093149800d5
:10314000080037008a1498009b1498000500370087
:103150000004eb00e24f50001a0032008a1498007d
:103160009b14980018002000e14f500015003a0011
:103170000984e80008007800ff0a07003908900079
:103180000410e3000100310020808800ea00b9004b
:10319000c14522000100400088007800d90a0700dc
:1031a00000808000b90890003008900018002000ce
:1031b000808f500003003600ec2d0200000000005c
:1031c00000000000f8080700080078004f067800ab
:1031d0004f05be004f04be0000000600889fbe00e1
:1031e0008a1f780085047800000478000400e0005d
:1031f000030032000813900098139000068abe0066
:103200004862900020c0b30040649800e28f5000f4
:103210001000320003003e00e18f50001c003a0015
:1032200005003700e38f500011003200e48f50009a
:1032300017003a0011003700081090009810900015
:10324000000171008181710002149800131498002c
:103250000f003700081090009810900061004000a7
:10326000e08048000014980011149800080037000e
:103270000214980013149800050037000000eb00ba
:10328000e24f5200230032000214980013149800f9
:1032900010002000e14f52001e003a000210e20030
:1032a0000d003a000885e8000a007800b20a07001d
:1032b000380890000410e3000100310020808800ed
:1032c000ea00b900c1452200010040008a007800f0
:1032d0008c0a070003003700ec004400404822003d
:1032e000880a07000080800038099000b00890002c
:1032f00010002000810f5100060036000900e00098
:1033000002003200800c780002003700100020001c
:10331000308088004f0578004f04be000000060092
:10332000889fbe008a1f78000004be00486090009d
:1033300021c0b300416498000811900098119000da
:1033400061014100e08149000214980013149800c3
:10335000e14f50001e003a000210e2000d003a005a
:103360000885e8000a007800830a07003808900002
:103370000410e3000100310020808800ea00b90059
:10338000c1452200010040008a0078005d0a070064
:1033900003003700ec00440040482200590a0700af
:1033a00000808000b808900030089000808f5000a6
:1033b000070036000900e000030032001000200082
:1033c000800c780002003700100020003080880058
:1033d0004f0578004f04be0000000600889fbe0025
:1033e0000000e00002003a00098080000100370080
:1033f0008004780064080700496090000004eb0036
:10340000e24f500003003a000040eb00c064980017
:103410001800200064080700080078004f04be0070
:1034200000000600889fbe008a1f78000004780014
:1034300002057800e80c9000081190000200e000fe
:103440001f0032000a00e0000c003a002800900043
:1034500017f60700a80090000810900000804000b8
:103460002004980098009000810f5000140039004b
:1034700018007800200498001100370038009000f0
:103480000bf60700881090008100ea0038009000d9
:103490000100400030049800980f500003003100f4
:1034a000180090008100400031049800e20f5500a0
:1034b00003003a000900e000010032008904e9003d
:1034c0008904e800690c98000000eb004f057800c3
:1034d0004f04be000000060081017800001190003a
:1034e0000200e0000b003200b0009000828040003b
:1034f0003100980010029000848f500002003900c3
:103500009000780031009800b0009000030078002f
:10351000e7f5070000000600881f78000004780027
:1035200019080700e80890007808900000846800f7
:1035300008f0a7000804ea000804e9004f44de0090
:1035400019080700080078004f0478000000060002
:10355000881f7800000478000b080700680c9000b2
:103560001108070008f0a7000804ea000800e900b5
:103570004f00de004f04780000000600889fbe0068
:103580008a1f780000047800ff070700b8649000e5
:103590000904e00011003400180890000000e00069
:1035a00005003a000d003700180890000000e00008
:1035b00002003a0009003700720544000a00780052
:1035c000ccfd07000000e000010032002cfe0700e7
:1035d0008944e9004240a900f3ff3c0000c0eb0031
:1035e00030649800f0070700e7070700a864900020
:1035f0000904e00011003400480090000000e000e1
:1036000005003a000d003700480090000000e0007f
:1036100002003a0009003700680544000a007800fb
:10362000b4fd07000000e0000100320014fe0700b6
:103630008944e9004240a900f3ff3c0000c0eb00d0
:1036400020649800d80707004f0578004f04be009b
:1036500000000600889fbe000004be00ca070700e5
:10366000180078007809900088109000828ab900cc
:1036700084014000130498008001eb00630c980063
:10368000200498000201e9008191b9000200400085
:103690003004980000c0eb0020649800306498006b
:1036a0000900e0000b003a00480090000000e00034
:1036b0000c003200680044008efd07000000e000ae
:1036c00008003200ec2d02000000000000000000a5
:1036d00004003700680044007f09070072004400be
:1036e0007d090700b0070700100020004f04be004e
:1036f00000000600889fbe008a1f78000005780041
:10370000810478000000eb000900e00001003200b5
:103710008ac8b9004002b000040a0700000478001b
:103720000800e0000b0032000900e00002003a004f
:10373000080c78000200370040022000000c440012
:103740007a0c9800091498001100200008007800f5
:10375000c0ff0700080078004f0578004f04be0046
:10376000000006000600fa00889fbe008a9fbe0087
:103770008c1f780001067800a2bf9f000305780027
:10378000000478008004eb00e80544007e07070091
:10379000e808900078089000808f500002003900ff
:1037a000e20f550017003a000a0178008c007800fb
:1037b000080078001bff0700980890000100e00057
:1037c00008003200720044004afd07000000e000db
:1037d00009003200ec2d0200000000000000000093
:1037e000050037000000e00003003200ec2d02006d
:1037f00000000000000000006b0707001000200020
:10380000360037002fb897000000e00003003a00b0
:10381000650707000000eb00300037000900e000fa
:1038200003003a00708057006ffd07001900200068
:103830005d070700f0fb07005307070028609000b2
:10384000e14f400002003a000040eb002064980085
:1038500038609000e14f400002003a000040eb0069
:103860003064980050070700ec80570070805700c4
:1038700062fd07000000e00014003a000800780034
:1038800025ff07000000e0000c003200afb89700f1
:103890000b007800fffc07000800780037ff0700e6
:1038a00036fc07000000e000b8ff3a00ec2d0200f3
:1038b0000000000000000000b4ff3700080078009e
:1038c0002eff07002dfc0700b0ff3700080078002e
:1038d0002aff070029fc07000000eb004f067800d4
:1038e0004f05be004f04be000080fa000000060035
:1038f000889fbe008a1f7800020578008004780047
:103900006909900079089000800f51000300390088
:103910000000eb00e28f510017003a00396490007c
:103920000301780009007800befe0700e14f440063
:103930000e003a0099089000100020000100e000fd
:103940000d00320072804400eafc0700800078001d
:10395000100020000100e000070032000a00e00033
:1039600005003200000d7800030037000844e8002d
:10397000b8649800100020004f0578004f04be0086
:1039800000000600881f780001047800600990009c
:10399000f00990008000eb00830f5100150031000a
:1039a000b06090000201e80062089800e1cf40009a
:1039b0000d003a0010099000110020000200e00004
:1039c0000c00320072004000cafc07001100200009
:1039d0000000e000070032000800e00005003200af
:1039e000010c7800030037008140e8003160980046
:1039f00011002000010078004f047800000006004c
:103a00000600fa00889fbe008a9fbe008c9fbe0001
:103a10000106780092bf9f008306780000047800ba
:103a20000005eb00f2054400d7060700e80c900003
:103a30000900e00021003200380590008c00780079
:103a400008007800a4fe07000d00e0000d003a0019
:103a50008904e900690c9800480090000000e0002b
:103a60001300320068004400a2fc07000000e000e0
:103a70000f003200ec2d02000000000000000000ea
:103a80000b0037003a049800180890000000e0008e
:103a9000070032007200440096fc07000000e000be
:103aa00003003200ec2d02000000000000000000c6
:103ab000bd060700100020003a0037001fb897002d
:103ac0000000e00003003a00b70607000000eb002a
:103ad000340037000a00e00003003a00728057000b
:103ae000c1fc07001a002000af06070042fb0700d8
:103af000a506070028609000e14f400002003a0050
:103b00000040eb002064980038609000e14f4000d6
:103b100002003a000040eb0030649800a206070063
:103b2000ee80570072805700b4fc07000000e000f0
:103b300014003a000800780085fe07000000e0004d
:103b40000c0032009fb897000b00780051fc070072
:103b50000800780089fe070088fb07000000e000ed
:103b6000b1ff3a00ec2d0200000000000000000050
:103b7000adff37000800780080fe07007ffb0700dc
:103b8000a9ff3700080078007cfe07007bfb0700d8
:103b9000080078006efe07000000e000a2ff32007f
:103ba0000000eb004f06be004f05be004f04be00f4
:103bb0000080fa0000000600889fbe008a9fbe00b9
:103bc0008205780000047800e80c90000000eb000b
:103bd0000900e00018003200286590000800780015
:103be0003dfe07008904e900690c9800e14f45009b
:103bf0000e003a00c8009000100020000100e00014
:103c00000d003200680044003afc07008000780094
:103c1000100020000100e000070032000b00e0006f
:103c200005003200800d7800030037000a45e800e7
:103c30002a649800100020004f05be004f04be000b
:103c400000000600889fbe0000047800680990000c
:103c50000000eb000200e00005003200b804900014
:103c6000080078001cfe07003904980010002000ae
:103c70004f04be0000000600881f78000004780092
:103c800041060700680c900047060700080078000e
:103c90004f04780000000600889fbe008004780072
:103ca0003906070069089000790c90000004540060
:103cb0003d060700080078004f04be000000060023
:103cc0006008900000000600b3083700600890000c
:103cd00000f0a7000000ea000000e9004f00de004d
:103ce00000000600e0089000700890000080680066
:103cf00000f0a7000000ea000000e9004f00de002d
:103d000000000600889fbe008a1f78000105780029
:103d10008204780000047800f0f12f004200b60021
:103d20000050a00010028800000000000000000009
:103d300008007800f8fd07000000e0000f003200e6
:103d40000900e00008003200e800440009007800a3
:103d500065020700f0f12f004220b60000000000cd
:103d6000c0ff2f0025003700f0f12f004220b600e1
:103d7000000000000000eb0020003700f0f12f00f1
:103d80004220b600000000004200b6000050a00033
:103d90001002880000000000000000006809900088
:103da000f80890000000eb00810f51000f00310077
:103db0000001eb008a0078000800780099fd0700f8
:103dc00098089000100020000100e0000700320079
:103dd00072004400f202070080007800b0ff2f005c
:103de0000100e00001003a0010002000f1f12f0076
:103df0002204200012896000000000004f057800b6
:103e00004f04be0000000600881f78008101780082
:103e100000047800f0f12f004200b6000050a0002e
:103e200010028800000000000000000068089000f8
:103e30000000e0000f003a000200e000080032003d
:103e4000f20044000200780027020700f0f12f0082
:103e50004220b60000000000c0ff2f002f003700f6
:103e6000f0f12f004220b600000000000000eb003f
:103e70002a003700f0f12f004220b60000000000b9
:103e80004200b6000050a0001002880000000000b0
:103e900000000000e80890000000eb000100e000d6
:103ea0001a00320008119000380090000200400013
:103eb0003004980098009000810f500002003900f3
:103ec0001800780030049800680890000000e900ad
:103ed000600c9800b80090000300780074f30700ad
:103ee000c8009000100020000100e0000700320030
:103ef00068004400aa02070080007800b0ff2f008d
:103f00000100e00001003a0010002000f1f12f0054
:103f10002204200012896000000000004f04780095
:103f200000000600889fbe0082047800000478002c
:103f30006809900078089000800f51000f00310050
:103f40000001eb000800780036fd07000900e000e2
:103f50000a003a00180890000000e0000700320054
:103f6000720044008e0207008004780009f0a70068
:103f70008904ea008904ea00cf4cde0009007800d9
:103f80004f04be0000000600889fbe0000047800b9
:103f90008101780082047800e80890000000eb00be
:103fa0000100e0001c003200081190003800900071
:103fb000020040003004980098009000810f5000eb
:103fc000020039001800780030049800680890005a
:103fd0000000e900600c9800b80090000300780031
:103fe00033f30700100020001900e0000a003a0037
:103ff000c80090000100e0000700320068004400a3
:104000006702070080007800100020000100e00037
:1040100001003200800c78004f04be000000060052
:104020000200fa00889fbe008a1f78005805200011
:10403000ea0a20000000eb00eefa0700f0f90700a2
:10404000800478000000eb00c0bf9f00588188000a
:104050008001eb00f20a2000e880570030818000e8
:10406000c0fd07000000e000020032001000200048
:1040700000818800e2f90700890450008a8f54000b
:1040800002003e001000200000818800e00b2000ac
:10409000808f54000200360010002000008188004c
:1040a000588188000000eb00d2fa0700d4f907001d
:1040b00080047800588188008001eb00f20a20001b
:1040c000e8805700308180004dfe07000000e000ce
:1040d000020032001000200000818800c8f90700ab
:1040e000890450008a8f540002003e001000200016
:1040f00000818800e00b2000808f54000200360011
:104100001000200000818800588188001e30ec00db
:10411000c8ff37000600fa00889fbe008a9fbe00d5
:10412000210020000000eb000df90700b4f90700a2
:1041300000047800f00a20004efa0700b0f90700ea
:1041400008045000610b2000810f5400020036006b
:104150001000200000818800a9f907008004780081
:10416000b9bf9f000004eb006a0b2000b1042000df
:104170006a8057004ffa0700a1f9070009005000b4
:10418000080050008a0f5000020036001000200086
:10419000008188001c30ec00b804b00070172000cb
:1041a000800f5400f1ff3a00110020000000eb00e6
:1041b000ebf807000000eb0090bf9f000004eb004d
:1041c000aa0020000854dd008df907008004780063
:1041d0008001eb0008017800ec80570030818000fe
:1041e00007fe07000000e00002003200100020007f
:1041f0000081880082f9070089045000890f54006b
:104200000200360010002000008188006f04440086
:10421000888f5400020036001000200000818800c2
:104220009fb897000104e80098bf9f00e40f540076
:10423000e4ff34000000eb0090bf9f000004eb009f
:10424000190020008801780008017800ee805700ee
:104250003081800043fd0700e10f50000100320073
:10426000098188009fb897000100e80090bf9f0077
:10427000e40f5000f3ff34000000eb0090bf9f00fc
:104280000004eb00ab0020001a002000085cdd00f9
:104290005bf90700800478008001eb0008017800da
:1042a000ee805700308180002efd07000000e00006
:1042b000010032000a81880051f90700890450008a
:1042c000890f5400010036000a8188006f04440001
:1042d000888f5400010036000a8188009fb897003b
:1042e0000104e80098bf9f00e40f5400e7ff34008a
:1042f0002a30ef0040818000d9f8070050052000e7
:104300002a10e30007003200490120000004780071
:1043100009007800d7f9070050818000880f50000d
:10432000fbff3a0040012000d2f907002a30ef00dd
:104330008000eb0091bf9f00580520006011b8007d
:10434000ec80570030818000adfd0700e10f500088
:104350000200320010002000008188006011b800c7
:10436000ee80570030818000fefc0700e10f500016
:10437000020032001000200000818800508180007f
:10438000880f500002003a001000200000818800d1
:10439000310020004081800071f8070051818000c9
:1043a000888f500002003a00100020000081880031
:1043b0008000eb004081800069f807009fb89700fb
:1043c0000100e80090bf9f00e40f5000dbff3400c5
:1043d000500520002a10e3000700320049012000a8
:1043e0000004780009007800a2f9070050818000dd
:1043f000880f5000fbff3a00400120009df90700a4
:104400002a30ef008000eb0091bf9f0018002000d1
:104410006011b800ec8057003081800078fd070003
:10442000e10f500001003200088188009fb897001a
:104430000100e80090bf9f00e40f5000f4ff34003b
:104440004081800086f80700500520002a10e30014
:1044500007003200490120000004780009007800bc
:1044600084f9070050818000880f5000fbff3a005c
:10447000400120007ff907002a30ef008000eb00a8
:1044800091bf9f00580520006011b800ee805700d2
:1044900030818000b3fc0700e10f500002003200c1
:1044a00010002000008188006011b800ec805700e7
:1044b0003081800052fd0700e10f50000200320001
:1044c000100020000081880050818000880f50007b
:1044d00002003a0010002000008188003100200016
:1044e000408180001ef8070051818000888f5000b5
:1044f00002003a0010002000008188008000eb00dc
:104500004081800016f807009fb897000100e8007e
:1045100090bf9f00e40f5000dbff340050052000e7
:104520002a10e3000700320049012000000478004f
:10453000090078004ff9070050818000880f500073
:10454000fbff3a00400120004af907001c30ec0054
:10455000f3fe37000041eb00210020005000200056
:1045600064fc0700308188000000e0000e0032008b
:104570008002eb00140020008001eb009206200076
:10458000010e2900a00822006af707008502210019
:104590000002eb008001eb0092062000710e290062
:1045a0000001220063f7070000000600e38080009e
:1045b000228180000000eb0011818000f4808000e7
:1045c000810f5200050032000281690002f0a7004d
:1045d0000201ea000200ea004f00de0001818000d3
:1045e000e18f500001003a000000eb001e10f800bf
:1045f0002210f9001c10f8002410f9000000060039
:10460000889fbe008a9fbe00800578000105780063
:1046100082047800c00120004406070000047800ee
:104620000080eb000800e0002c0032002c10e200bb
:104630000f003a0068818800604b2200a605070041
:10464000004c2200a4050700a04c2200a205070090
:10465000404d2200a0050700c04a22009e05070029
:10466000a04c2200b0818800404d2200c08188000b
:104670000a00e000010032001a0020000000eb00f8
:10468000500c98003a0c9800490c98008804780067
:104690008b1c780009007800970507006c00440027
:1046a0009505070048049800180c9800620515004d
:1046b0006a049800380890002e10e30001003100d1
:1046c00070818800ea00b900614b220001004000bf
:1046d000890078008b050700100020004f05be0000
:1046e0004f04be0000000600889fbe000104780051
:1046f000a9818000890440002c90ec009e050700f1
:104700006181800099009800a0818000890f50008d
:10471000040036008180e800c08180008305070026
:10472000030037008180e800b08180007f0507002a
:104730000800e0000400320061818000ec8040004d
:1047400008007800790507004f04be00000006004d
:10475000889fbe008a9fbe00602581000000e000a7
:104760001d0032006a4b2200cb4a2200f9f12f00d3
:1047700011028000018064000050a0001002880037
:10478000000000000000000090258100300490002f
:104790006c004400780507002004200010886400a5
:1047a000000000008884e800090078007205070016
:1047b000380890002e10e30001003100708188005d
:1047c000ea00b9000a004000890078004d050700a2
:1047d0001b00e000e5ff3a0009f807008181800036
:1047e0000100500090818800faf12f006b4b2200ed
:1047f000340037003410ec00a08188008100e9000b
:10480000918188000000e00004003a00b18180003e
:104810003810f8003610f900c1818800b18180009d
:104820001100e00027003200b10090003104900038
:1048300098009000808f500006003600210037005d
:104840003000900030049000180090003410e30015
:104850001c00390011028000010065000050a0001a
:104860001002880000000000000000008884e800ba
:104870000900780040050700280890000000e000cb
:10488000020032006c0044003b05070020042000b9
:104890001008650000000000380890002e10e300aa
:1048a0000100310070818800ea00b9000b0040006f
:1048b0008900780013050700b08180001000e00037
:1048c000dfff3a00918180000100e000c9ff3a005b
:1048d0003410f8003010f90070818000ea01b9004e
:1048e000614b2200828040001100e00010003a007d
:1048f0000000e000270032000001e900ea11b900e1
:10490000614b22008100410005003700ea80500021
:104910000000e00002003a00708188001d003700ae
:104920000000e9001100e000f8ff3200708188000b
:10493000ea01b900614b220082814000930190009e
:10494000930190000282400013029800640141002c
:1049500081004100818f510005003a00ea01b90051
:10496000814b220081004100930190008308780070
:10497000ea00b900814b22000100400010007800dd
:104980003000900060818800c0089000100178001d
:10499000020001004f05be004f04be0000000600eb
:1049a000889fbe0030009000b00490006c844400ea
:1049b00008007800f004070088007800c04a220050
:1049c000d0040700100020003909900061818000a8
:1049d000b1089000810f5100010031000000eb0090
:1049e0004f04be0000000600889fbe008a1f7800aa
:1049f0000004be00020578000041eb001100200019
:104a00000a0078003bfb0700f08188000041eb00c2
:104a1000110020000a00780036fb0700d0818800d2
:104a2000f00f2c009206b6000030b30090348800de
:104a300000f82f00c606b6004006b30030368800e6
:104a40003062a9003002a90090ff2f003022b6008a
:104a500030a2a90030c2a90030e2a900f0cf2f0097
:104a60003022b6003182a90031a2a90031e2a800ab
:104a70000800be00c6ef0700020020000318240053
:104a800018f007000001be0000c22b00e1bb2400ab
:104a900053ef07000200200003f02300f2ee0700ae
:104aa000a0ef0700c0118800f0f32f003222b600fb
:104ab0003342a80033c2a90033a2a90033e2a900ff
:104ac000f0f12f004200b6000050a0001002880054
:104ad000000000000000000003c8a90003e8a900ce
:104ae000f08f2f004e08b6000080a00070428800b2
:104af000f0ff28004e08b60000c0a00070428800f9
:104b000023e8a80023c8a8003202ab00030032004b
:104b1000b01180003202ab00fdff3a00100020000f
:104b2000e08188000000eb004f0578004f04be00d4
:104b3000000006008001eb00f0818000b0fb070060
:104b400000f0a7000000ea000000ea004f00de00cd
:104b5000000006000200fa00e1ff9f008001eb0068
:104b60008f80e900d0818000fefa07008000780085
:104b70000000eb00e18f500005003a00100020001b
:104b80003c10e200020032003c30ef0003e8a800d5
:104b90000080fa0000000600000006003600f80061
:104ba000809fbe00829fbe00849fbe00869fbe0085
:104bb000881f78003200f8003400f8001000200050
:104bc000a001880000202000900188000000000063
:104bd0000400fa000000eb00f0bf9f0003c8a9002a
:104be0003202ab000a0032000004eb00b01180007a
:104bf000c0ff9f00880178000f81e900e480570022
:104c0000f08180003afb07003202ab00f7ff3a0068
:104c10007fb897000000e00003003200ec2d020096
:104c200000000000000000000080fa003400f900dd
:104c30003200f9004f0478004f03be004f02be005f
:104c40004f01be004f00be003600f90000400600d4
:104c50003600f800809fbe00829fbe00849fbe0089
:104c6000869fbe00881f78003200f8003400f800ec
:104c700010002000a0018800002020009001880082
:104c8000000000000400fa000000eb00f0bf9f00ed
:104c900003e8a9003322ab0010003a0008202000ee
:104ca0000f81e900e4805700d0818000c2fb07003b
:104cb000e10f500007003a00cff897000100fb0019
:104cc000a01188009111800001006400f4ff3200ff
:104cd0000200370010002000e08188007fb89700b4
:104ce0000000e00003003200ec2d02000000000094
:104cf000000000000080fa003400f9003200f900e2
:104d00004f0478004f03be004f02be004f01be00ab
:104d10004f00be003600f900004006000200fa0015
:104d2000889fbe008a9fbe008000eb00b1bf9f003d
:104d3000000478008004eb000005eb001b0020005d
:104d4000010037008b047800180190008a01780078
:104d5000ea8057001800780082fa0700e10f50003f
:104d6000f8ff3a000900e00002003a002800900035
:104d70001008e8003fb897000000e800b0bf9f00af
:104d8000f1ff37000200fa00889fbe008a9fbe0034
:104d90008c1f7800000478006055b8008004eb0098
:104da0001c00200002003700000578008c05780008
:104db0001801900089017800ec80570018007800f5
:104dc0000ffb0700e10f5000f9ff3a002fb89700e2
:104dd0008a0f5000f4ff3a000b00e00002003a0096
:104de000a80090009108e8000005e800f0ff3700f7
:104df000889fbe008a9fbe008c1f78000006780046
:104e00006000200049040700000478000041eb0026
:104e1000210020001000200036fa0700000c780066
:104e20000a0120001a049800a051220020049800d2
:104e3000600020003d04070080047800980c780092
:104e40008005eb009b04980000522200a00498000b
:104e50008002eb000c0278008801780092062000a6
:104e6000a1082900206c220032f507006022b8005a
:104e7000890178009206200021092900e0682200bb
:104e80002cf50700600020002804070000047800cb
:104e90000041eb00210020001000200015fa07005f
:104ea000000c78001b049800205222002004980077
:104eb000600020001d04070080047800980c780032
:104ec0009a049800c0512200a00498006022b80003
:104ed0008801780092062000a1092900206c220098
:104ee00014f507008002eb000c02780089017800bd
:104ef00092062000210a2900e06822000df5070033
:104f00006000200009040700000478000041eb0065
:104f10002100200050002000f6f90700000c780066
:104f20001a049800405222002004980060002000db
:104f3000fe03070080047800980c78009a0498001b
:104f4000e0512200a00498006022b8008801780097
:104f500092062000a10a2900e0682200f5f407006b
:104f60006022b8008901780092062000210b2900f8
:104f7000206c2200eff407004f0678004f05be00ba
:104f80004f04be0000000600889fbe00c3522200ee
:104f9000625222008000eb0010002000a651220087
:104fa0008004eb000552220001824000040243000d
:104fb0008303780014027800930f520001003a0036
:104fc000090078000182400004044300980b780037
:104fd000048242008203780014027800920f52008b
:104fe00001003a000900780001824000048242007a
:104ff000940b78008100e8008381e8000281e800da
:10500000e38f5000e8ff3a004f04be0000000600a6
:1050100001f02f0042e42000128960000000fb0034
:10502000442eb70034aea90015eea900348ea800b6
:10503000100020008ff60700348ea90040002000e9
:105040008cf63700889fbe008a1f78009040780059
:105050000104e000160032000004780009f02f007f
:105060001a00200034aea90015eea80040e420008c
:10507000108864000100fb00442eb700348ea800a5
:10508000000000000000000000000000348ea900b5
:1050900015eea9000a00780076f60700400020000f
:1050a00074f60700d84078000104e000edff3a00f4
:1050b0004f0578004f04be00000006000400fa000f
:1050c000889fbe008a1f7800f000200069f6070064
:1050d00009f02f0040e420001088640034aea900dd
:1050e00015eea900348ea90000e4200010886400a9
:1050f00030aea90011eea900308ea90040e42000d6
:10510000108864008803200008007800442eb7004f
:10511000348ea80000000000000000000000000025
:10512000348ea9004000200052f607004000200005
:1051300050f60700400020004ef6070040e4200033
:105140001088640008007800442eb700348ea80050
:10515000000000000000000000000000348ea900e4
:105160004000200043f6070040e42000108864005f
:1051700008007800442eb700348ea800000000001c
:105180000000000000000000348ea9004000200054
:1051900038f60700084078009dff0700c0c0b30044
:1051a0009bff070060c0b30099ff070010c0b30069
:1051b00097ff0700a00b2900a2ff07006044b8007a
:1051c0000accb300880178000081eb00ea80570028
:1051d000d08280000afa0700e10f5000f9ff3a0080
:1051e0008bff07000908a30003003a0020c0b300aa
:1051f00087ff0700020037000a40780084ff07009d
:105200008904e8004fb897008eff07003fb8970069
:1052100018f60700ebff37000041eb0041002000cb
:105220003000200033f90700d08288008002eb00b4
:10523000140020008001eb0092062000b10c290030
:10524000e08522003bf40700d082800000000600c9
:105250000200fa00881f78000004780058089000c7
:10526000211c2000810f50000e0032008100e80058
:10527000810f5000140032000000e0001a003a00d4
:105280000081eb00e480570090828000defa070086
:10529000e40f400007003a00201c2000500c98004a
:1052a000110037000001eb00e4805700908280007d
:1052b000d5fa0700e50f400004003a00301c20003a
:1052c000500c98000800370010002000e10f50003b
:1052d000020032005030ef00e9ff37006fb897004e
:1052e00000030700e6ff37004f0478000080fa0053
:1052f000000006000200fa00881f7800e1bf9f004e
:10530000000478005808900021182000810f5000f8
:105310001300320003003e000000e00007003200ee
:105320002700370031182000810f5000150032008f
:10533000f3804000810f500021003a000001eb0093
:10534000e4805700908280006efa0700e40f40006e
:1053500007003a0020182000500c98001800370071
:105360000001eb00e48057009082800065fa07009e
:10537000e50f400004003a0030182000500c98005f
:105380000f00370010002000e10f50000100320034
:105390005030ef006fb8970000004000010d290069
:1053a00000804000100078000000e00002003200a1
:1053b0008000eb00ccfc070060192000500c980026
:1053c0004f0478000080fa0000000600889fbe00ad
:1053d0008a9fbe00800478000041eb00210020007d
:1053e00010002000c3f80700908288000000e00051
:1053f00013003200e88f54000100360089002000bd
:105400000900e0000a0032000004eb000005eb0098
:10541000ab972200080178008a0078000b00780022
:1054200077fc07000804e800888f5400f9ff3e006d
:105430000001eb00110020008092220070fc0700a8
:105440004f05be004f04be000000060080828000b1
:10545000000006003600fa00a3fc2f0083814700fd
:10546000e40129001a000900b419780080017800cd
:10547000811978008000eb0081197800811978008b
:105480008219780082fc2f000f014100e003b00078
:1054900083007800d2187800808f5000fdff3a001a
:1054a0006003200003004000210280000118780002
:1054b0009301800003187800a4018000041878008c
:1054c0000018eb000080fa00000006000000060053
:1054d0000421ef000021ef0040c3200010088800e5
:1054e000f0ff28004008b60000c0a000004288007d
:1054f0000068a9002068a8000481a80004a1a900f0
:1055000005e1a80000000600f1ff07000080800010
:10551000900778004f007800708288003400f9000e
:105520003200f9004400f9004000f9003e00f900a3
:105530003c00f9003a00f9003800f9002c00f900ad
:105540002a00f9002800f9002600f9002400f900db
:105550002200f9005400f9003600f9004f077800e6
:105560004f06be004f05be004f04be004f03be00f5
:105570004f02be004f01be004f00be004200f900c6
:105580000000060010000500f0f12f004200b600f8
:105590000050a00010028800000000000000000081
:1055a0004e30ec00000006004e10ed0070828800c6
:1055b00003003a00f0f12f004220b6000000000086
:1055c000000006003600f800809fbe00829fbe00eb
:1055d000849fbe00869fbe003200f8003400f800b1
:1055e00010002000a0018800002020009001880009
:1055f000000000000068a90091f407000000e0002e
:1056000003003200ec2d020000000000000000004a
:105610003400f9003200f9004f03be004f02be0013
:105620004f01be004f00be003600f90000400600ea
:105630000200fa00889fbe008a9fbe008c9fbe00b9
:105640000006eb001dc4b3009ac5b3008bc5b300c0
:105650000d4478008084eb0009017800ee8057004b
:105660000000eb0033fd07000000e0000500320001
:105670002ff09700884f500016003a004c10ec00b5
:10568000180207000844e8008a4f5400f2ff3a006d
:105690004c10ec008000eb00fd010700e10f56000c
:1056a000ebff3c000900370008017800ee8057004e
:1056b0000000eb001ffd07002ff097008b4f5000fc
:1056c000f9ff3a000c06e800e1ff37004a30ec0031
:1056d000dfff37004c10ec008000eb00ec0107000e
:1056e0000084eb002ff097008b4f5000eeff3a0044
